{
  "_format": "hh-sol-artifact-1",
  "contractName": "TaskManager",
  "sourceName": "contracts/TaskManager.sol",
  "abi": [
    {
      "anonymous": false,
      "inputs": [
        {
          "indexed": true,
          "internalType": "uint256",
          "name": "taskId",
          "type": "uint256"
        },
        {
          "indexed": true,
          "internalType": "address",
          "name": "owner",
          "type": "address"
        },
        {
          "indexed": false,
          "internalType": "string",
          "name": "content",
          "type": "string"
        }
      ],
      "name": "TaskAdded",
      "type": "event"
    },
    {
      "anonymous": false,
      "inputs": [
        {
          "indexed": true,
          "internalType": "uint256",
          "name": "taskId",
          "type": "uint256"
        }
      ],
      "name": "TaskDeleted",
      "type": "event"
    },
    {
      "anonymous": false,
      "inputs": [
        {
          "indexed": true,
          "internalType": "uint256",
          "name": "taskId",
          "type": "uint256"
        },
        {
          "indexed": false,
          "internalType": "bool",
          "name": "completed",
          "type": "bool"
        }
      ],
      "name": "TaskToggled",
      "type": "event"
    },
    {
      "inputs": [
        {
          "internalType": "string",
          "name": "content",
          "type": "string"
        }
      ],
      "name": "addTask",
      "outputs": [],
      "stateMutability": "nonpayable",
      "type": "function"
    },
    {
      "inputs": [
        {
          "internalType": "uint256",
          "name": "taskId",
          "type": "uint256"
        }
      ],
      "name": "deleteTask",
      "outputs": [],
      "stateMutability": "nonpayable",
      "type": "function"
    },
    {
      "inputs": [],
      "name": "getMyTasks",
      "outputs": [
        {
          "components": [
            {
              "internalType": "uint256",
              "name": "id",
              "type": "uint256"
            },
            {
              "internalType": "string",
              "name": "content",
              "type": "string"
            },
            {
              "internalType": "bool",
              "name": "completed",
              "type": "bool"
            },
            {
              "internalType": "address",
              "name": "owner",
              "type": "address"
            }
          ],
          "internalType": "struct TaskManager.Task[]",
          "name": "",
          "type": "tuple[]"
        }
      ],
      "stateMutability": "view",
      "type": "function"
    },
    {
      "inputs": [
        {
          "internalType": "uint256",
          "name": "taskId",
          "type": "uint256"
        }
      ],
      "name": "toggleTaskComplete",
      "outputs": [],
      "stateMutability": "nonpayable",
      "type": "function"
    }
  ],
  "bytecode": "0x608060405234801561001057600080fd5b506112ca806100206000396000f3fe608060405234801561001057600080fd5b506004361061004c5760003560e01c8063560f31921461005157806363944fc11461006d57806367238562146100895780636e13f818146100a5575b600080fd5b61006b600480360381019061006691906109ea565b6100c3565b005b610087600480360381019061008291906109ea565b61034e565b005b6100a3600480360381019061009e9190610a7c565b6104a4565b005b6100ad610695565b6040516100ba9190610ce9565b60405180910390f35b803373ffffffffffffffffffffffffffffffffffffffff166001600083815260200190815260200160002060020160019054906101000a900473ffffffffffffffffffffffffffffffffffffffff1673ffffffffffffffffffffffffffffffffffffffff1614610168576040517f08c379a000000000000000000000000000000000000000000000000000000000815260040161015f90610d68565b60405180910390fd5b6000600260003373ffffffffffffffffffffffffffffffffffffffff1673ffffffffffffffffffffffffffffffffffffffff16815260200190815260200160002090506000805b828054905081101561027157848382815481106101cf576101ce610d88565b5b90600052602060002001540361025e5782600184805490506101f19190610de6565b8154811061020257610201610d88565b5b90600052602060002001548382815481106102205761021f610d88565b5b90600052602060002001819055508280548061023f5761023e610e1a565b5b6001900381819060005260206000200160009055905560019150610271565b808061026990610e49565b9150506101af565b50806102b2576040517f08c379a00000000000000000000000000000000000000000000000000000000081526004016102a990610edd565b60405180910390fd5b600160008581526020019081526020016000206000808201600090556001820160006102de919061090d565b6002820160006101000a81549060ff02191690556002820160016101000a81549073ffffffffffffffffffffffffffffffffffffffff02191690555050837fd078b251d950cc55c44340be1db732337ef4939a76e1367ee271ad2cb19c46af60405160405180910390a250505050565b803373ffffffffffffffffffffffffffffffffffffffff166001600083815260200190815260200160002060020160019054906101000a900473ffffffffffffffffffffffffffffffffffffffff1673ffffffffffffffffffffffffffffffffffffffff16146103f3576040517f08c379a00000000000000000000000000000000000000000000000000000000081526004016103ea90610d68565b60405180910390fd5b6001600083815260200190815260200160002060020160009054906101000a900460ff16156001600084815260200190815260200160002060020160006101000a81548160ff021916908315150217905550817fe668c7a227d9261aa1f964bf5a852ab642446a7af6c29405caf8d0e9ce2c11f06001600085815260200190815260200160002060020160009054906101000a900460ff166040516104989190610f0c565b60405180910390a25050565b60008060008154809291906104b890610e49565b919050559050604051806080016040528082815260200184848080601f016020809104026020016040519081016040528093929190818152602001838380828437600081840152601f19601f8201169050808301925050505050505081526020016000151581526020013373ffffffffffffffffffffffffffffffffffffffff168152506001600083815260200190815260200160002060008201518160000155602082015181600101908161056e9190611162565b5060408201518160020160006101000a81548160ff02191690831515021790555060608201518160020160016101000a81548173ffffffffffffffffffffffffffffffffffffffff021916908373ffffffffffffffffffffffffffffffffffffffff160217905550905050600260003373ffffffffffffffffffffffffffffffffffffffff1673ffffffffffffffffffffffffffffffffffffffff1681526020019081526020016000208190806001815401808255809150506001900390600052602060002001600090919091909150553373ffffffffffffffffffffffffffffffffffffffff16817f93a8e75471bd311ce5f95db404c257e8b775ab9f5436c5b6997e81651d56a0148585604051610688929190611270565b60405180910390a3505050565b60606000600260003373ffffffffffffffffffffffffffffffffffffffff1673ffffffffffffffffffffffffffffffffffffffff16815260200190815260200160002080548060200260200160405190810160405280929190818152602001828054801561072257602002820191906000526020600020905b81548152602001906001019080831161070e575b505050505090506000815167ffffffffffffffff81111561074657610745610f27565b5b60405190808252806020026020018201604052801561077f57816020015b61076c61094d565b8152602001906001900390816107645790505b50905060005b825181101561090457600160008483815181106107a5576107a4610d88565b5b60200260200101518152602001908152602001600020604051806080016040529081600082015481526020016001820180546107e090610f85565b80601f016020809104026020016040519081016040528092919081815260200182805461080c90610f85565b80156108595780601f1061082e57610100808354040283529160200191610859565b820191906000526020600020905b81548152906001019060200180831161083c57829003601f168201915b505050505081526020016002820160009054906101000a900460ff161515151581526020016002820160019054906101000a900473ffffffffffffffffffffffffffffffffffffffff1673ffffffffffffffffffffffffffffffffffffffff1673ffffffffffffffffffffffffffffffffffffffff16815250508282815181106108e6576108e5610d88565b5b602002602001018190525080806108fc90610e49565b915050610785565b50809250505090565b50805461091990610f85565b6000825580601f1061092b575061094a565b601f016020900490600052602060002090810190610949919061098d565b5b50565b60405180608001604052806000815260200160608152602001600015158152602001600073ffffffffffffffffffffffffffffffffffffffff1681525090565b5b808211156109a657600081600090555060010161098e565b5090565b600080fd5b600080fd5b6000819050919050565b6109c7816109b4565b81146109d257600080fd5b50565b6000813590506109e4816109be565b92915050565b600060208284031215610a00576109ff6109aa565b5b6000610a0e848285016109d5565b91505092915050565b600080fd5b600080fd5b600080fd5b60008083601f840112610a3c57610a3b610a17565b5b8235905067ffffffffffffffff811115610a5957610a58610a1c565b5b602083019150836001820283011115610a7557610a74610a21565b5b9250929050565b60008060208385031215610a9357610a926109aa565b5b600083013567ffffffffffffffff811115610ab157610ab06109af565b5b610abd85828601610a26565b92509250509250929050565b600081519050919050565b600082825260208201905092915050565b6000819050602082019050919050565b610afe816109b4565b82525050565b600081519050919050565b600082825260208201905092915050565b60005b83811015610b3e578082015181840152602081019050610b23565b60008484015250505050565b6000601f19601f8301169050919050565b6000610b6682610b04565b610b708185610b0f565b9350610b80818560208601610b20565b610b8981610b4a565b840191505092915050565b60008115159050919050565b610ba981610b94565b82525050565b600073ffffffffffffffffffffffffffffffffffffffff82169050919050565b6000610bda82610baf565b9050919050565b610bea81610bcf565b82525050565b6000608083016000830151610c086000860182610af5565b5060208301518482036020860152610c208282610b5b565b9150506040830151610c356040860182610ba0565b506060830151610c486060860182610be1565b508091505092915050565b6000610c5f8383610bf0565b905092915050565b6000602082019050919050565b6000610c7f82610ac9565b610c898185610ad4565b935083602082028501610c9b85610ae5565b8060005b85811015610cd75784840389528151610cb88582610c53565b9450610cc383610c67565b925060208a01995050600181019050610c9f565b50829750879550505050505092915050565b60006020820190508181036000830152610d038184610c74565b905092915050565b600082825260208201905092915050565b7f4e6f7420746865207461736b206f776e65720000000000000000000000000000600082015250565b6000610d52601283610d0b565b9150610d5d82610d1c565b602082019050919050565b60006020820190508181036000830152610d8181610d45565b9050919050565b7f4e487b7100000000000000000000000000000000000000000000000000000000600052603260045260246000fd5b7f4e487b7100000000000000000000000000000000000000000000000000000000600052601160045260246000fd5b6000610df1826109b4565b9150610dfc836109b4565b9250828203905081811115610e1457610e13610db7565b5b92915050565b7f4e487b7100000000000000000000000000000000000000000000000000000000600052603160045260246000fd5b6000610e54826109b4565b91507fffffffffffffffffffffffffffffffffffffffffffffffffffffffffffffffff8203610e8657610e85610db7565b5b600182019050919050565b7f5461736b204944206e6f7420666f756e6420696e2075736572206c6973740000600082015250565b6000610ec7601e83610d0b565b9150610ed282610e91565b602082019050919050565b60006020820190508181036000830152610ef681610eba565b9050919050565b610f0681610b94565b82525050565b6000602082019050610f216000830184610efd565b92915050565b7f4e487b7100000000000000000000000000000000000000000000000000000000600052604160045260246000fd5b7f4e487b7100000000000000000000000000000000000000000000000000000000600052602260045260246000fd5b60006002820490506001821680610f9d57607f821691505b602082108103610fb057610faf610f56565b5b50919050565b60008190508160005260206000209050919050565b60006020601f8301049050919050565b600082821b905092915050565b6000600883026110187fffffffffffffffffffffffffffffffffffffffffffffffffffffffffffffffff82610fdb565b6110228683610fdb565b95508019841693508086168417925050509392505050565b6000819050919050565b600061105f61105a611055846109b4565b61103a565b6109b4565b9050919050565b6000819050919050565b61107983611044565b61108d61108582611066565b848454610fe8565b825550505050565b600090565b6110a2611095565b6110ad818484611070565b505050565b5b818110156110d1576110c660008261109a565b6001810190506110b3565b5050565b601f821115611116576110e781610fb6565b6110f084610fcb565b810160208510156110ff578190505b61111361110b85610fcb565b8301826110b2565b50505b505050565b600082821c905092915050565b60006111396000198460080261111b565b1980831691505092915050565b60006111528383611128565b9150826002028217905092915050565b61116b82610b04565b67ffffffffffffffff81111561118457611183610f27565b5b61118e8254610f85565b6111998282856110d5565b600060209050601f8311600181146111cc57600084156111ba578287015190505b6111c48582611146565b86555061122c565b601f1984166111da86610fb6565b60005b82811015611202578489015182556001820191506020850194506020810190506111dd565b8683101561121f578489015161121b601f891682611128565b8355505b6001600288020188555050505b505050505050565b82818337600083830152505050565b600061124f8385610d0b565b935061125c838584611234565b61126583610b4a565b840190509392505050565b6000602082019050818103600083015261128b818486611243565b9050939250505056fea2646970667358221220805ac1da6f2dab5bfee3a495f33af61aa1d901a41291e18e3bc952abc8fae16764736f6c63430008140033",
  "linkReferences": {},
  "deployedLinkReferences": {}
}